S015000054454D505F48554D49444954592E737265630D
S11300000C94C7000C94E4000C94E4000C94E400F9
S11300100C94E4000C94E4000C94E4000C94E400CC
S11300200C94E4000C94E4000C94E6000C94E400BA
S11300300C94E4000C94E4000C94E4000C94E400AC
S11300400C94E4000C94E4000C94E4000C94E4009C
S11300500C94E4000C94E4000C94E4000C94E4008C
S11300600C94E4000C94E4000C94E4000C94E4007C
S11300700C94E4000C94E4000C94E4000C94E4006C
S11300800C94E4000C94E4000C94E4006E616E00A3
S1130090696E660000407A10F35A00A0724E180987
S11300A00010A5D4E80000E87648170000E40B54DB
S11300B0020000CA9A3B000000E1F50500008096AA
S11300C09800000040420F000000A08601000000DC
S11300D0102700000000E803000000006400000096
S11300E000000A00000000000100000000002C765F
S11300F0D888DC674F0823DFC1DFAE59E1B1B7967A
S1130100E5E3E453C63AE651997696E8E6C28426D6
S1130110EB898C9B62ED407C6FFCEFBC9C9F40F2B2
S1130120BAA56FA5F490055A2AF75C936B6CF9672E
S11301306DC11BFCE0E40D47FEF520E6B500D0EDF3
S1130140902E0300943577050080841E080000205B
S11301504E0A000000C80C333333330F986E1283F9
S11301601141EF8D2114893BE65516CFFEE6DB18CD
S1130170D1844B381BF77C1D901DA4BBE424203292
S113018084725E228100C9F124ECA1E53D2711248B
S11301901FBECFEFD0E1DEBFCDBF11E0A0E0B1E0E4
S11301A0EAE8F4E102C005900D92AA30B107D9F74C
S11301B021E0AAE0B1E001C01D92AC31B207E1F741
S11301C00E943C010C94430A0C9400001F920F926D
S11301D00FB60F9211242F938F939F93EF93FF9356
S11301E080E88BBB81E090E000900F0102C0880F93
S11301F0991F0A94E2F7809585BBE0910F01F0E026
S1130200E05FFE4FE081F0E0E050FF4F80818BBB68
S113021080910F0190E0019683709078992324F4E3
S113022001978C6F9F6F019680930F0180910D0150
S113023090910E01019690930E0180930D01843FDD
S1130240914081F481E080930A0180910B019091A7
S11302500C01019690930C0180930B0110920E01F6
S113026010920D01FF91EF919F918F912F910F901B
S11302700FBE0F901F901895CF93DF9300D01F925D
S1130280CDB7DEB780E282B98FEF8ABB80E88BBB43
S11302908FE085BB84BB83E085BD14BC13BC81E5C2
S11302A087BF10927D0086EE89838BEB8A8360E0A2
S11302B080E00E94770220E042E0BE016F5F7F4F42
S11302C080E40E9498028FE19EE40197F1F700C058
S11302D0000081E080930A01789485B7806285BF2D
S11302E00F2EF3EEAF2EF02D0F2EF5EEBF2EF02DC8
S11302F00F2EFAE0CF2ED12CF02D00E111E00F2EBD
S1130300FDECEF2EF02D6894FF24F5F880910A019E
S1130310813009F0A4C0A98220E041E0BE016F5FF2
S11303207F4F80E40E94980243E0BE016F5F7F4FDD
S113033080E40E94DF02698170E0762F66278A815B
S1130340682B80E090E00E94E40320E030E040E885
S113035057E30E94720422E538EB4FE253E40E9413
S1130360720426E636E64BE352E40E9441036093AE
S113037018017093190180931A0190931B01B9829B
S113038020E041E0BE016F5F7F4F80E40E9498024D
S113039043E0BE016F5F7F4F80E40E94DF0269810A
S11303A070E0762F66278A81682B80E090E00E94B7
S11303B0E40320E030E040E857E30E94720420E0C8
S11303C030E04AEF52E40E94720420E030E040EC56
S11303D050E40E9441032B013C016093140170938B
S11303E01501809316019093170110920A016091F0
S11303F018017091190180911A0190911B010E94BA
S1130400AE03CB01B6010E945C08F8016083308121
S11304103E9D912D1124969596959695990F292F89
S1130420220F220F920F391B30838183C301B20143
S11304300E94AE03CB01B6010E945C08F8016283FE
S113044032813E9D912D1124969596959695990FFE
S1130450292F220F220F920F391B3283838380911D
S11304600B0190910C01089709F4F3B885B7837ECA
S113047085BF88954BCF84EA80937400E4E7F0E06D
S113048080818823ECF780917100887F883051F057
S113049080917100887F803141F080917100887F64
S11304A090E0089580E090E0089580E090E0089561
S11304B08093730084E880937400E4E7F0E0808123
S11304C08823ECF780917100887F883151F0809106
S11304D07100887F803441F080917100887F90E0C2
S11304E0089580E090E0089580E090E0089591B34D
S11304F0936091BB662321F092B3936092BB03C0D7
S113050092B39C7F92BB91B39C7F91BB813041F0AD
S113051018F0823049F0089588E4809370000895BB
S113052088E18093700008958CE0809370000895B2
S1130530EF92FF921F93CF93DF93D82F7B01C42FA9
S1130540122F0E943B020097A1F58D2F880F0E9465
S11305505802009771F5CC2311F1D701B7016C0F44
S1130560711D23E730E0E4E7F0E044E80F2EF1E703
S1130570EF2EF12CF02D8D91E90188834083808149
S11305808823ECF7E7018881887F883229F0888105
S1130590887F90E0009769F46A177B0761F711116F
S11305A006C084E98093740080E090E002C080E09B
S11305B090E0DF91CF911F91FF90EF900895EF921B
S11305C0FF920F931F93CF93DF93082F7B01142F78
S11305D00E943B029C01009709F04BC0802F880FBA
S11305E081600E945802009709F044C0812F90E076
S11305F0019718161906ECF4D701AC014E0D5F1DD6
S1130600E4E7F0E094EC21E730E063E770E0908306
S113061080818823ECF7E9018881887F803519F08F
S11306208881887F02C0EB0188818D934A175B071C
S113063071F7812F90E00197E701C80FD91F84E873
S113064080937400E4E7F0E080818823ECF78091E4
S11306507100887F883521F080917100887F02C005
S113066080917300888384E98093740080E090E033
S113067001C0932FDF91CF911F910F91FF90EF90C5
S113068008955058BB27AA270E9459030C94380494
S11306900E942A0438F00E94310420F039F49F3F6C
S11306A019F426F40C9427040EF4E095E7FB0C945B
S11306B02104E92F0E94490458F3BA17620773070B
S11306C08407950720F079F4A6F50C946B040EF4D6
S11306D0E0950B2EBA2FA02D0B01B90190010C014E
S11306E0CA01A0011124FF27591B99F0593F50F466
S11306F0503E68F11A16F040A22F232F342F4427BE
S1130700585FF3CF469537952795A795F0405395B5
S1130710C9F77EF41F16BA0B620B730B840BBAF085
S11307209150A1F0FF0FBB1F661F771F881FC2F7F0
S11307300EC0BA0F621F731F841F48F48795779504
S11307406795B795F7959E3F08F0B0CF9395880FBE
S113075008F09927EE0F9795879508950E94B503A1
S11307606894B1110C946C0408950E94510488F0AB
S11307709F5798F0B92F9927B751B0F0E1F0660F61
S1130780771F881F991F1AF0BA95C9F714C0B130A2
S113079091F00E946B04B1E008950C946B04672FF0
S11307A0782F8827B85F39F0B93FCCF386957795D1
S11307B06795B395D9F73EF49095809570956195BA
S11307C07F4F8F4F9F4F0895E89409C097FB3EF4E5
S11307D090958095709561957F4F8F4F9F4F99238A
S11307E0A9F0F92F96E9BB279395F6958795779508
S11307F06795B795F111F8CFFAF4BB0F11F460FFC8
S11308001BC06F5F7F4F8F4F9F4F16C0882311F01F
S113081096E911C0772321F09EE8872F762F05C033
S1130820662371F096E8862F70E060E02AF09A95CE
S1130830660F771F881FDAF7880F9695879597F9C3
S1130840089597F99F6780E870E060E008959FEF4E
S113085080EC089500240A94161617061806090653
S1130860089500240A941216130614060506089522
S1130870092E0394000C11F4882352F0BB0F40F4AA
S1130880BF2B11F460FF04C06F5F7F4F8F4F9F4FEA
S1130890089557FD9058440F551F59F05F3F71F06C
S11308A04795880F97FB991F61F09F3F79F08795D3
S11308B00895121613061406551FF2CF4695F1DF5C
S11308C008C0161617061806991FF1CF86957105EC
S11308D0610508940895E894BB2766277727CB0120
S11308E097F908950E9485040C9438040E942A0400
S11308F038F00E94310420F0952311F00C94210467
S11309000C94270411240C946C040E94490470F381
S1130910959FC1F3950F50E0551F629FF001729FA0
S1130920BB27F00DB11D639FAA27F00DB11DAA1FAF
S1130930649F6627B00DA11D661F829F2227B00DFC
S1130940A11D621F739FB00DA11D621F839FA00D87
S1130950611D221F749F3327A00D611D231F849FD7
S1130960600D211D822F762F6A2F11249F5750402E
S11309709AF0F1F088234AF0EE0FFF1FBB1F661FA9
S1130980771F881F91505040A9F79E3F510580F072
S11309900C9421040C946C045F3FE4F3983ED4F36C
S11309A0869577956795B795F795E7959F5FC1F716
S11309B0FE2B880F911D9695879597F90895A0E1D0
S11309C0B0E0E5EEF4E00C9470087C011B016A01D0
S11309D0FC0117821682838181FF44C39E012F5F2D
S11309E03F4F3901F7019381F10193FD859193FF05
S11309F081911F01882309F431C3853239F493FDB1
S1130A00859193FF81911F01853239F4B70190E0FC
S1130A100E94A90956016501E5CF10E0512C912CE3
S1130A20FFE1F915D8F08B3279F038F4803279F09F
S1130A308332A1F4F92DF0612EC08D3261F0803340
S1130A4069F4292D21602DC0392D3260932E892D12
S1130A508460982E2AC0E92DE86015C097FC2DC04B
S1130A6020ED280F2A3088F496FE06C03AE0139F42
S1130A70200D1124122F19C08AE0589E200D112434
S1130A80522EE92DE0629E2E10C08E3231F496FC77
S1130A90E5C2F92DF0649F2E08C08C3621F4292D6F
S1130AA02068922E02C0883641F4F10193FD8591AD
S1130AB093FF81911F018111B3CF9BEB980F93306A
S1130AC020F4992D9061805E07C09BE9980F9330C4
S1130AD008F066C1992D9F7E96FF16E09F73992EAC
S1130AE0853619F49064992E08C0863621F4392F7E
S1130AF03068932E02C01111115097FE07C01C33A9
S1130B0050F444244394410E27E00BC0183038F0CD
S1130B1027E017E005C027E09CE3492E02C0212FFF
S1130B20412C560184E0A80EB11CF601608171814C
S1130B3082819381042DA3010E94BB086C01F98179
S1130B40FC87F0FF02C0F3FF06C091FC06C092FED2
S1130B5006C000E205C00DE203C00BE201C000E0E4
S1130B608C858C7019F001115AC29BC297FE10C07B
S1130B704C0CFC85F4FF04C08A81813309F44A9447
S1130B80141474F528E0241578F588E0482E2CC058
S1130B9096FC2AC0812F90E08C159D059CF03CEFBB
S1130BA0C3163FEFD30674F0892D8068982E0AC0CF
S1130BB0E2E0F0E0EC0FFD1FE10FF11D80818033D6
S1130BC019F411501111F4CF97FE0EC0442443942C
S1130BD0410E812F90E0C816D9062CF41C1904C0CC
S1130BE04424439401C010E097FE06C01C141D0465
S1130BF034F4C601019605C085E090E002C081E0AE
S1130C0090E001110196112331F0212F30E02F5F84
S1130C103F4F820F931F252D30E08217930714F462
S1130C20581A01C0512C892D897049F4552039F086
S1130C30B70180E290E00E94A9095A94F7CF0023FB
S1130C4029F0B701802F90E00E94A90993FC09C004
S1130C50552039F0B70180E390E00E94A9095A9425
S1130C60F7CF97FE4CC04601D7FE02C0812C912CD1
S1130C70C60188199909F301E80FF91FFE87ED876A
S1130C80960124193109388B2F87012F10E0119513
S1130C90019511093FEF8316930629F4B7018EE2FB
S1130CA090E00E94A909C814D9044CF08F85988952
S1130CB08815990524F4ED85FE85818101C080E3C2
S1130CC0F1E08F1A91082D853E852F5F3F4F3E87B7
S1130CD02D87801691062CF0B70190E00E94A90997
S1130CE0D9CFC814D90441F49A81963320F49533AA
S1130CF019F43C8534FF81E3B70190E04EC08A814A
S1130D00813319F09C859F7E9C87B70190E00E94F7
S1130D10A909111105C094FC18C085E690E017C01C
S1130D20B7018EE290E00E94A9091E5F82E001E013
S1130D30080FF301E80FF11D8081B70190E00E94D4
S1130D40A909802F0113F3CFE6CF85E490E0B70122
S1130D500E94A909D7FC06C0C114D10441F4EC8552
S1130D60E4FF05C0D194C194D1088DE201C08BE2A7
S1130D70B70190E00E94A90980E32AE0C216D104D9
S1130D802CF08F5FFAE0CF1AD108F7CFB70190E0CB
S1130D900E94A909B701C601C0960E94A90954C1BD
S1130DA0833631F0833779F0833509F056C020C09B
S1130DB0560132E0A30EB11CF6018081898301E063
S1130DC010E0630112C05601F2E0AF0EB11CF6014F
S1130DD0C080D18096FE03C0612F70E002C06FEF27
S1130DE07FEFC6010E949E098C01F92DFF7714C084
S1130DF0560122E0A20EB11CF601C080D18096FEFD
S1130E0003C0612F70E002C06FEF7FEFC6010E9444
S1130E1093098C01F92DF0689F2EF3FD1AC0852DDE
S1130E2090E008171907A8F4B70180E290E00E9447
S1130E30A9095A94F4CFF60197FC859197FE819104
S1130E406F01B70190E00E94A90951105A94015012
S1130E5011090115110579F7F7C0843611F08936A7
S1130E6061F5560197FE09C024E0A20EB11CF601FB
S1130E7060817181828193810AC0F2E0AF0EB11C5E
S1130E80F60160817181072E000C880B990BF92DF6
S1130E90FF769F2E97FF09C0909580957095619578
S1130EA07F4F8F4F9F4FF0689F2E2AE030E0A301C1
S1130EB00E94E509C82EC6183FC0092D853721F4C4
S1130EC00F7E2AE030E01DC0097F8F3691F018F4C0
S1130ED0883559F0C3C0803719F0883711F0BEC087
S1130EE0006104FF09C0046007C094FE08C00660E6
S1130EF006C028E030E005C020E130E002C020E177
S1130F0032E0560107FF09C084E0A80EB11CF601C7
S1130F10608171818281938108C0F2E0AF0EB11CBF
S1130F20F6016081718180E090E0A3010E94E509EF
S1130F30C82EC6180F77902E96FE0BC0092D0E7F73
S1130F40C11650F494FE0AC092FC08C0092D0E7E0E
S1130F5005C0DC2C092D03C0DC2C01C0D12E04FFFC
S1130F600DC0FE01EC0DF11D8081803311F4097E6A
S1130F7009C002FF06C0D394D39404C0802F86789E
S1130F8009F0D39403FD11C000FF06C01C2DD51435
S1130F9080F4150D1D190DC0D51458F4B70180E265
S1130FA090E00E94A909D394F7CFD51410F45D18EA
S1130FB001C0512C04FF10C0B70180E390E00E94EF
S1130FC0A90902FF17C001FD03C088E790E002C031
S1130FD088E590E0B7010CC0802F867859F001FFB6
S1130FE002C08BE201C080E207FD8DE2B70190E010
S1130FF00E94A909C11638F4B70180E390E00E9469
S1131000A9091150F7CFCA94F301EC0DF11D8081A9
S1131010B70190E00E94A909C110F5CF15C0F4E012
S1131020F51560F584E0581A93FE1FC0011127C01E
S11310302C8523FF2AC00CE810E0392D3071932E43
S1131040F8018491811124C0552009F4E4CCB7013E
S113105080E290E00E94A9095A94F6CFF7018681B4
S1131060978126C08FEF9FEF23C0B70180E290E005
S11310700E94A9095A945110F8CFD8CF512CB70126
S1131080802F90E00E94A909D3CF00E910E0D5CFCA
S113109091108052B70190E00E94A9090F5F1F4F81
S11310A0CFCF23E0251510F483E0BDCF512CC0CF62
S11310B06096E2E10C948C0897FB072E16F40094DA
S11310C007D077FD09D00E94A70807FC05D03EF49D
S11310D0909581959F4F0895709561957F4F0895E0
S11310E02F923F924F925F926F927F928F929F9234
S11310F0AF92BF92CF92DF92EF92FF920F931F9322
S1131100CF93DF93CDB7DEB7CA1BDB0B0FB6F894D2
S1131110DEBF0FBECDBF09942A88398848885F8412
S11311206E847D848C849B84AA84B984C884DF8083
S1131130EE80FD800C811B81AA81B981CE0FD11D67
S11311400FB6F894DEBF0FBECDBFED010895AA1B04
S1131150BB1B51E107C0AA1FBB1FA617B70710F09E
S1131160A61BB70B881F991F5A95A9F780959095D0
S1131170BC01CD010895283008F027E03327DA01B7
S1131180990F311D87FD916000966105710539F451
S113119032602E5F3D9330E32A95E1F708959F3F37
S11311A030F080387105610509F03C5F3C5F3D9388
S11311B0913008F08068911DDF93CF931F930F93B4
S11311C0FF92EF92192F987F9695E92F9695969511
S11311D0E90FFF27E251FF4F99273327EE24FF241D
S11311E0A701E70105900894079428F4360FE71E39
S11311F0F81E491F511D660F771F881F991F0694FB
S1131200A1F70590079428F4E70EF81E491F561F0E
S1131210C11D770F881F991F661F0694A1F70590BB
S1131220079428F4F80E491F561FC71FD11D880FB5
S1131230991F661F771F0694A1F70590079420F461
S1131240490F561FC71FD81F990F661F771F881F86
S11312500694A9F784911095177041F0D695C79517
S113126057954795F794E7941A95C1F7E4E9F0E0A8
S113127068941590159135916591959105907FE24B
S11312807395E118F10A430B560BC90BD009C0F74B
S1131290E10CF11E431F561FC91FD01D7EF470338D
S11312A011F48A95E6CFE894015030F0080F0AF45F
S11312B00027021708F4202F2395022F7A3328F0F1
S11312C079E37D932A95E9F710C07D932A9589F6F1
S11312D0069497956795379517951794E118F10A31
S11312E0430B560BC90BD00998F023957E91739547
S11312F07A3308F070E37C932013B8F77E91706121
S11313007D9330F0839571E37D9370E32A95E1F743
S11313101124EF90FF900F911F91CF91DF919927A6
S113132087FD90950895FC0105906150704001106F
S1131330D8F7809590958E0F9F1F0895FC016150FA
S1131340704001900110D8F7809590958E0F9F1FE3
S113135008950F931F93CF93DF93FB01238121FD06
S113136003C08FEF9FEF2CC022FF16C04681578128
S1131370248135814217530744F4A081B1819D0132
S11313802F5F3F4F318320838C93268137812F5FDA
S11313903F4F3783268314C08B01EC01FB0100848B
S11313A0F185E02D0995892BE1F6D80116968D91EA
S11313B09C911797019617969C938E931697CE013E
S11313C0DF91CF911F910F910895FA01AA27283038
S11313D051F1203181F1E8946F936E7F6E5F7F4FFE
S11313E08F4F9F4FAF4FB1E03ED0B4E03CD0670F7A
S11313F0781F891F9A1FA11D680F791F8A1F911DCD
S1131400A11D6A0F711D811D911DA11D20D009F41C
S113141068943F912AE0269F11243019305D31935E
S1131420DEF6CF010895462F4770405D4193B3E047
S11314300FD0C9F7F6CF462F4F70405D4A3318F0EE
S1131440495D31FD4052419302D0A9F7EACFB4E09F
S1131450A6959795879577956795BA95C9F7009757
S11314606105710508959B01AC010A2E06945795F8
S1131470479537952795BA95C9F7620F731F841F4F
S10D1480951FA01D0895F894FFCFF6
S10D148ABF86DBCFE6EDFD87FFEF20
S9030000FC
